:0200000470008A
:10000000001000205D2E0070FB3100700332007084
:100010000B320070133200701B32007000000000C1
:10002000000000000000000000000000233200700B
:1000300031320070000000003F3200704D3200701D
:10004000AD2E007000000000AD2E0070AD2E0070CF
:10005000AD2E0070AD2E007000000000000000000A
:10006000AD2E0070AD2E0070AD2E007000000000AF
:1000700000000000AD2E0070000000000000000035
:10008000AD2E0070AD2E0070AD2E0070AD2E007044
:10009000AD2E0070AD2E0070AD2E0070AD2E007034
:1000A000AD2E0070AD2E0070AD2E0070AD2E007024
:1000B000AD2E0070AD2E0070AD2E0070AD2E007014
:1000C000AD2E0070AD2E0070AD2E0070AD2E007004
:1000D000AD2E0070AD2E0070AD2E0070AD2E0070F4
:1000E000AD2E0070AD2E0070AD2E0070AD2E0070E4
:1000F000AD2E0070AD2E0070AD2E0070AD2E0070D4
:10010000AD2E0070AD2E0070AD2E0070AD2E0070C3
:10011000AD2E0070AD2E0070AD2E0070AD2E0070B3
:10012000AD2E0070AD2E0070AD2E0070AD2E0070A3
:10013000AD2E0070AD2E0070AD2E0070AD2E007093
:10014000AD2E0070AD2E0070AD2E0070AD2E007083
:10015000AD2E0070AD2E0070AD2E0070AD2E007073
:10016000AD2E0070AD2E0070AD2E0070AD2E007063
:10017000AD2E0070AD2E0070AD2E0070AD2E007053
:10018000AD2E0070AD2E0070AD2E0070AD2E007043
:10019000AD2E0070AD2E0070AD2E0070AD2E007033
:1001A000AD2E0070AD2E0070AD2E0070AD2E007023
:1001B000AD2E0070AD2E0070AD2E0070AD2E007013
:1001C000AD2E0070AD2E0070AD2E0070AD2E007003
:1001D000AD2E0070AD2E0070AD2E0070AD2E0070F3
:1001E000AD2E0070AD2E0070AD2E0070AD2E0070E3
:1001F000AD2E0070AD2E0070000000000000000069
:10020000AD2E0070AD2E0070AD2E0070AD2E0070C2
:10021000AD2E0070AD2E0070AD2E0070AD2E0070B2
:10022000AD2E0070AD2E0070AD2E0070AD2E0070A2
:10023000AD2E0070AD2E0070AD2E0070AD2E007092
:10024000AD2E0070AD2E0070AD2E0070AD2E007082
:10025000AD2E0070AD2E0070AD2E0070AD2E007072
:10026000AD2E0070AD2E0070AD2E0070AD2E007062
:10027000AD2E0070AD2E0070AD2E0070AD2E007052
:10028000AD2E0070AD2E0070AD2E0070AD2E007042
:10029000AD2E0070AD2E0070AD2E0070AD2E007032
:1002A000AD2E0070AD2E0070AD2E0070AD2E007022
:1002B00010B5054C237833B9044B13B10448AFF3A0
:1002C00000800123237010BD5800002400000000AE
:1002D000C8D4007008B5034B1BB103490348AFF302
:1002E000008008BD000000005C000024C8D400703D
:1002F00080B483B000AF134BD3F83431114A43F0CC
:100300000203C2F834310F4BD3F834317B607B6881
:100310000D4B1B6823F4E0230B4A43F44033136076
:10032000094B5B6B23F00703074A43F00203536357
:10033000054B23229A6000BF0C37BD465DF8047B55
:10034000704700BF004402580010005280B400AF54
:1003500000BF074B1B6803F00103002BF9D1BFF36B
:100360004F8F00BF00BFBD465DF8047B704700BFE4
:100370000010005280B588B000AFF860B9607A60B4
:100380003B603B68002B60DDBB6A002B5DDD3B689A
:10039000BA6A03FB02F22F4B1B689A422AD2FFF77C
:1003A000D5FF0023FB6120E07A68FB6913441A46FD
:1003B0004FF4487303FB02F2BB6813445B00FA6816
:1003C00013447B610023BB6108E0BB695B007A6971
:1003D0001344BA8D1A80BB690133BB61BA693B68AB
:1003E0009A42F2DBFB690133FB61FA69BB6A9A420C
:1003F000DADB2BE0FFF7AAFF174ABB8D93637B681C
:100400004FF4487203FB02F2BB6813445B00FA68C6
:100410001A44114BDA633B68C3F548720E4B1A64F9
:100420003B681A04BB6A0C4913434B640A4B2322F2
:100430009A60094B1B68084A43F001031360074B9D
:100440001B680133054A136000E000BF2037BD463A
:1004500080BD00BF00000024001000527400002482
:1004600080B487B000AF0346FB8000237B61492343
:100470003B6124E07A693B691344002B00DA0133C5
:100480005B10FB60134AFB6832F81330FA889A421B
:1004900007D1FA681346DB001344DB000E4A13440D
:1004A00012E00C4AFB6832F81330FA889A4203D9FA
:1004B000FB6801337B6102E0FB68013B3B617A69C9
:1004C0003B699A42D6DD002318461C37BD465DF8CD
:1004D000047B704794D5007028D6007080B400AFBC
:1004E000094BDB68084A43F08073D360074B002256
:1004F0005A60064B1B68054A43F00103136000BFB6
:10050000BD465DF8047B7047F0ED00E0001000E0B0
:1005100080B588B000AF3B1D00221A605A609A6017
:10052000DA6006F025FA01233B7107237B714FF057
:100530001043BB6015233B730323FB7300237B74C1
:100540000123BB740023FB740023BB7300237B7364
:1005500001233B743B1D184606F028FA042006F0E0
:10056000E5F91A4B0022C3F88420BFF34F8F00BF78
:10057000164BD3F88030FB61FB695B0BC3F30E03B2
:10058000BB61FB69DB08C3F309037B61BB695A01EB
:1005900043F6E07313407A6992070C491343C1F89C
:1005A00074327B695A1E7A61002BEFD1BB695A1EE7
:1005B000BA61002BE5D1BFF34F8F00BFBFF36F8F40
:1005C00000BF00BF00BF2037BD4680BD00ED00E08A
:1005D00080B582B000AF06F055F87860094A7B68B4
:1005E00053407B60084B9B681B027A6853407B60DA
:1005F0007B68002B01D07B6800E0044B184608376D
:10060000BD4680BD7800002410E000E00DF0A5A5F7
:1006100080B584B002AF4FF4F07300934FF4487389
:1006200002220121002004F0F7F90346002B01D03B
:1006300002F0D6FD00237B600EE07B685B0003F1D7
:10064000104300221A807B685A00114B1344002289
:100650001A807B6801337B607B680E4A9342ECD939
:100660004FF010420021002004F008FC002100207F
:1006700004F0D0FB002004F02DFC074B00221A6090
:10068000034800F045F900BF0837BD4680BD00BFF4
:1006900000002090FFDB05009801002480B584B0A5
:1006A00000AF4FF448733B604FF4F0737B6001235D
:1006B000BB600223FB603B461946002004F0FCFDB2
:1006C0000346002B01D002F08BFD00BF1037BD4662
:1006D00080BD000080B584B000AFFFF737FE224B2D
:1006E0001B68002B02D04FF0104300E01F4BBB6093
:1006F0001F4ABB6893621F4B02225A621E4B5B6803
:100700007B600023FB6008E01A4B5B6A03F0020386
:10071000002B07D0FB680133FB60FB68174A93424C
:10072000F2D900E000BF144B5A687B68D31A144A10
:100730001360144B1B680133124A13600A4B1B6889
:1007400083F00103084A1360074B1B68002B02D09B
:100750004FF0104300E0054B184600F0D9F800BFF9
:100760001037BD4680BD00BF9801002400002090D6
:100770008410005000100050001000E07F841E0024
:10078000A0010024A401002480B586B000AF7860E9
:10079000396007F10C031946002004F04FFE0346B0
:1007A000002B01D000230DE0FB68002B01D10023BA
:1007B00008E03B6998B27B6999B23B687A6800F0BF
:1007C000A0FD012318461837BD4680BD80B58AB00C
:1007D00002AFFFF783FEFFF79BFEFFF719FFFFF75E
:1007E0005DFFFFF785FD424800F0A2F8414800F0A8
:1007F000AFF8FFF7EDFE034619463F4801F056F902
:100800003E4800F065FD4FF0104000F081F802F026
:1008100093FA3B4800F07CF802F08EFA394B1B68E3
:10082000002B02D04FF0104300E0354B184600F08B
:100830006FF805F027FFF86105F024FF78617A6909
:10084000FB69D31ABB617B69FB61BB69642B01D96E
:100850006423BB6100237B6000233B603A463B1D61
:1008600011461846FFF790FF0346FB7478683B6813
:10087000F97CBA690192009303460A461E491F4853
:1008800000F0D0FD0346BB741C4B1B7B83F00103BF
:10089000DBB2002B03D0B969174801F01DFBBB7C0C
:1008A000092B04D8BB7C012202FA03F300E00023E9
:1008B000FB60154B5B68BB60104B1A7B0F4B5B7B7F
:1008C000F9680D4802F04AFA0F4B5A68BB68D31A10
:1008D0000E4A1360FFF7FEFEBB7C092B03D80020F5
:1008E00003F0E4FBA8E7002003F00AFCA4E700BF44
:1008F000750300704D030070780000248801002407
:100900000000209098010024001000E09C010024C9
:1009100080B483B000AF7860044A7B68136000BF86
:100920000C37BD465DF8047B704700BFA80100246A
:1009300080B483B000AF7860044A7B68136000BF66
:100940000C37BD465DF8047B704700BFAC01002446
:1009500080B483B000AF7860044A7B68136000BF46
:100960000C37BD465DF8047B704700BFB001002422
:1009700080B500AF044B1B68002B02D0024B1B68F4
:10098000984700BF80BD00BFB001002480B483B091
:1009900000AF786039607A6840F2DF139B1A1A461C
:1009A0004FF4487303FB02F23B68134418460C37BC
:1009B000BD465DF8047B704790B585B000AFF86028
:1009C000B9601346FB80FB68B3F5F07F13D2BB68B8
:1009D000B3F5487F0FD20A4B1B68002B0BD0084B96
:1009E0001C68B968F868FFF7D1FF03465B00234431
:1009F000FA881A8000E000BF1437BD4690BD00BFE2
:100A0000A801002480B584B000AF0346FB800F4BE3
:100A10001B68002B15D0FFF7ABFF0D4BBB6000230D
:100A2000FB6009E0094B1A68FB685B001344FA8815
:100A30001A80FB680133FB60FA68BB689A42F1D305
:100A400000E000BF1037BD4680BD00BFA8010024F4
:100A500000DC050090B58BB002AFF860B9607A6039
:100A60003B60404B1B68002B75D07B68002B72DD10
:100A70003B68002B6FDDFB68002B05DA7A68FB68AA
:100A800013447B600023FB60BB68002B05DA3A68E7
:100A9000BB6813443B600023BB60FA687B68134467
:100AA000B3F5F07F03DDFB68C3F5F0737B60BA68D4
:100AB0003B681344B3F5487F03DDBB68C3F5487357
:100AC0003B607B68002B48DD3B68002B45DD264BF7
:100AD0001B68002B10D0244B1C68224B1868FA6846
:100AE0007B681344C3F5F0723B8E01937B680093DF
:100AF0003B68B968A04731E0FFF73AFFFB68FB614C
:100B000022E0184B1A68F96940F2DF135B1A1946A4
:100B10004FF4487303FB01F1BB680B445B001344C3
:100B20007B610023BB6108E0BB695B007A69134409
:100B30003A8E1A80BB690133BB61BA693B689A423D
:100B4000F2DBFB690133FB61FA687B681344FA69E5
:100B50009A42D6DB02E000BF00E000BF2437BD466A
:100B600090BD00BFA8010024AC01002480B586B070
:100B700002AFF860B9607A603B603B8B0093012361
:100B80007A68B968F868FFF765FFBA683B6813448C
:100B9000591E3B8B009301237A68F868FFF75AFFD0
:100BA0003B8B00933B680122B968F868FFF752FF5E
:100BB000FA687B681344581E3B8B00933B68012204
:100BC000B968FFF747FF00BF1037BD4680BD80B44E
:100BD00087B000AF03463960FB80FB88DB0A9BB21D
:100BE00003F01F033A6802FB03F3002B00DA7F33A4
:100BF000DB117B61FB885B099BB203F03F033A6822
:100C000002FB03F3002B00DA7F33DB113B61FB882F
:100C100003F01F033A6802FB03F3002B00DA7F3373
:100C2000DB11FB607B691F2B01DD1F237B613B69AF
:100C30003F2B01DD3F233B61FB681F2B01DD1F23A1
:100C4000FB607B691BB2DB021AB23B691BB25B0122
:100C50001BB213431AB2FB681BB213431BB29BB205
:100C600018461C37BD465DF8047B704780B588B0D8
:100C700002AFF860B9607A603B603B8C00933B68E0
:100C80007A68B968F868FFF7E5FE3B8CAA21184638
:100C9000FFF79DFF0346FB823B8C55211846FFF76B
:100CA00096FF0346BB82FB8A009302237A68B968E9
:100CB000F868FFF7CFFEFB8A00933B680222B96811
:100CC000F868FFF7C7FEBA683B681344991EBB8AF1
:100CD000009302237A68F868FFF7BCFEFA687B6825
:100CE0001344981EBB8A00933B680222B968FFF741
:100CF000B1FE00BF1837BD4680BD80B588B002AFD9
:100D0000F860B9607A607B807B68002B2EDD7B68A1
:100D10005B427B6125E000233B6102E03B690133DC
:100D20003B613B6901333A69013203FB02F27B69A3
:100D300003FB03F31A447B6803FB03F39A42EDDDE4
:100D4000FA683B69D01ABA687B69D1183B695B00C5
:100D50005A1C7B8800930123FFF77CFE7B690133DB
:100D60007B617A697B689A42D5DD00E000BF183765
:100D7000BD4680BD80B588B000AFF860B9607A60CC
:100D80007B807B68002B77DDFFF7F2FD7B68FB61E2
:100D90000023BB617B68C3F101037B6167E0FA68F4
:100DA000FB69D018BA68BB6913447A881946FFF703
:100DB00003FEFA68BB69D018BA68FB6913447A88E5
:100DC0001946FFF7F9FDFA68BB69D01ABA68FB69E2
:100DD00013447A881946FFF7EFFDFA68FB69D01AC9
:100DE000BA68BB6913447A881946FFF7E5FDFA68CB
:100DF000FB69D01ABA68BB69D31A7A881946FFF71B
:100E0000DBFDFA68BB69D01ABA68FB69D31A7A8825
:100E10001946FFF7D1FDFA68BB69D018BA68FB69BB
:100E2000D31A7A881946FFF7C7FDFA68FB69D0180C
:100E3000BA68BB69D31A7A881946FFF7BDFDBB694A
:100E40000133BB617B69002B06DABB695B000133B0
:100E50007A6913447B610AE0FB69013BFB61BA6973
:100E6000FB69D31A5B0001337A6913447B61FA6929
:100E7000BB699A4293DA00E000BF2037BD4680BDCF
:100E800080B588B002AFF860B9607A603B607B687B
:100E9000002B2DDD3B68002B2ADD3B68002B00DAA0
:100EA00001335B107B61FA687B69D0187B695B005A
:100EB0007A68D21A3B8C00933B68B968FFF7CAFD89
:100EC000FA687B69D018BA687B69D1183B8C7A695B
:100ED000FFF713FFFA687B681A447B69D31A581E20
:100EE000BA687B69D1183B8C7A69FFF706FF00E08E
:100EF00000BF1837BD4680BD80B588B000AFF86030
:100F0000B96011461A460B46FB801346BB80FB882E
:100F10001846FFF7A5FA78617B69002B37D0FFF7F9
:100F200027FD0023FB612EE0FA6913465B001344A2
:100F30001A467B6913443B610023BB611DE0BB691A
:100F4000DB101A463B6913441B781A46BB69DB4326
:100F500003F0070342FA03F303F00103002B09D067
:100F6000FA68BB69D018BA68FB691344BA88194695
:100F7000FFF722FDBB690133BB61BB69172BDEDDC7
:100F8000FB690133FB61FB69172BCDDD00E000BF7E
:100F90002037BD4680BD80B485B000AF78607B68E7
:100FA0001B68FB60FB681B78002B01D1002369E004
:100FB000FB681B785BB2002B06DBFB681B787B8130
:100FC000FB680133FB6059E0FB681B7803F0E0032A
:100FD000C02B1CD1FB6801331B7803F0C003802BAE
:100FE00015D1FB681B781BB29B011BB203F4F8639D
:100FF0001AB2FB6801331B781BB203F03F031BB22C
:1010000013431BB27B81FB680233FB6036E0FB6855
:101010001B7803F0F003E02B2BD1FB6801331B7826
:1010200003F0C003802B24D1FB6802331B7803F04C
:10103000C003802B1DD1FB681B781BB21B031AB2A7
:10104000FB6801331B781BB29B011BB203F47C636A
:101050001BB213431AB2FB6802331B781BB203F0B6
:101060003F031BB213431BB27B81FB680333FB605E
:1010700004E03F237B81FB680133FB607B68FA68F7
:101080001A607B8918461437BD465DF8047B7047AB
:1010900080B483B000AF0346FB80FB887F2B01D870
:1010A0000E2300E0192318460C37BD465DF8047B7B
:1010B000704780B588B000AFF860B9607A607B8017
:1010C0007B687B611EE0FB8B202B03D1FB680C331C
:1010D000FB6017E0FB8B7F2B02D86FF0050300E06D
:1010E0000023BB61FA68BB69D0187B88FA8BB968AA
:1010F000FFF702FFFB8B1846FFF7CAFF0246FB68AB
:101100001344FB6007F114031846FFF744FF03463E
:10111000FB83FB8B002BD6D100BF00BF2037BD4621
:1011200080BD80B586B000AF78607B68FB6000232F
:101130007B610CE07B8A202B05D07B8A1846FFF769
:10114000A7FF034600E00C237A6913447B6107F193
:101150000C031846FFF71FFF03467B827B8A002B98
:10116000E8D17B6918461837BD4680BD80B584B08C
:1011700000AFF860B9607A607B807868FFF7D1FFD4
:101180000346002B00DA01335B105B421A46FB6812
:10119000D0187B887A68B968FFF78BFF00BF1037DB
:1011A000BD4680BD80B584B000AF78600123FB6090
:1011B0007B68BB6008E0FB680133FB60BB68094AE1
:1011C000A2FB0323DB08BB60BB68092BF3D83020EC
:1011D000FFF75EFF0246FB6802FB03F31846103779
:1011E000BD4680BDCDCCCCCC80B58AB000AFF86018
:1011F000B9607A607B8000237B627B68002B22D100
:101200007B6A5A1C7A6228333B44302203F8182C3C
:1012100019E079682D4BA3FB0123DA0813469B00E4
:1012200013445B00CA1AD2B27B6A591C796230320D
:10123000D2B228333B4403F8182C7B68234AA2FB24
:101240000323DB087B607B68002B02D07B6A0A2BC0
:10125000DFDD00233B621FE007F110023B6A13440D
:101260001B78FB777B6A5A1E3B6AD31A28333B44B0
:1012700013F8181C07F110023B6A13440A461A704F
:101280007B6A5A1E3B6AD31A28333B44FA7F03F821
:10129000182C3B6A01333B627B6A002B00DA013376
:1012A0005B101A463B6A9342D6DB07F110027B6A59
:1012B000134400221A707B8807F11002B968F8689D
:1012C000FFF7F7FE00BF2837BD4680BDCDCCCCCCA4
:1012D00080B483B000AF78607B680A221A707B68A4
:1012E00000225A607B6800229A607B6800221A7391
:1012F0007B6801225A7300BF0C37BD465DF8047B42
:10130000704780B487B000AFBA607B600346FB8152
:101310000B46BB81FB897B61BB893B617B69002BF1
:1013200001DA00237B617B69B3F5487F02DB40F281
:101330001F337B613B69002B01DA00233B613B6972
:10134000B3F5F07F02DB40F2DF133B613A6940F214
:10135000DF139B1ABA6813607B687A691A6000BF52
:101360001C37BD465DF8047B704780B483B000AF86
:101370000346FB71FB79002B05D0FB79012B02D0D2
:10138000FB79022B01D1012300E0002303F00103CC
:10139000DBB218460C37BD465DF8047B7047000091
:1013A00080B582B000AF78600B46FB70FB78062BEF
:1013B00032D801A252F823F0D5130070E113007067
:1013C0000114007009140070EB130070F513007025
:1013D000111400704FF0FF31786800F0B3FB1CE08F
:1013E0000121786800F0AEFB17E00121786800F079
:1013F000DDFB12E04FF0FF31786800F0D7FB0CE026
:10140000786800F07BFC08E0786800F0B5FC04E048
:10141000786800F0F2FC00E000BF00BF0837BD466E
:1014200080BD00BF80B586B000AFF860B9603B609A
:101430001346FB71FB79002B05D0396A386800F040
:101440009BFE034600E00A23FB75FB681B78FA7DD0
:101450009A425AD0FB68FA7D1A70FB6800225A60E3
:10146000FB68B4229A60FB7D0A2B01D10A237BE042
:10147000FB7D092B17D0092B33DC072B02D0082B5F
:1014800019D02EE0FB685B7B002B14BF01230023E7
:10149000DBB283F00103DBB203F00103DAB2FB68D5
:1014A0005A73FB7D60E0B86800F038FBFB680022EF
:1014B0001A73FB7D58E0BB6893F8E430022B0ED022
:1014C000FB681B7B002B14BF01230023DBB283F0DE
:1014D0000103DBB203F00103DAB2FB681A73FB7D90
:1014E00042E000BFBB6893F8E430002B0BD1FB68EF
:1014F0001B7B83F00103DBB2002B04D0FB7D19467C
:10150000B868FFF74DFFFB7D2EE0FB7D0A2B01D174
:101510000A2329E0FB685A687B6A1A44FB685A6010
:10152000BB6893F8E430002B03D1FB681B7B002BD6
:1015300001D0FB7D18E0FB7D1846FFF716FF034640
:10154000002B10D0FB685A68FB689B689A420AD34C
:10155000FB7D1946B868FFF723FFFB685B6803F162
:101560003C02FB689A60FB7D18461837BD4680BD7B
:1015700080B485B000AF78607B68D3F80C31FB6035
:10158000FB685B03FA685340FB60FB685B0CFA681E
:101590005340FB60FB685B01FA685340FB607B686B
:1015A000FA68C3F80C21FB6818461437BD465DF88D
:1015B000047B704780B586B000AF786000237B6104
:1015C0000BE07B69D9B27A687B69134403F58273B7
:1015D0000A461A707B6901337B617B69062BF0DD5B
:1015E00006233B6127E07868FFF7C2FF03463A69AC
:1015F0000132B3FBF2F101FB02F29B1AFB607A6845
:101600003B69134403F582731B78FB72FB687A68AD
:10161000134493F804117A683B69134403F5827309
:101620000A461A70FB687A681344FA7A83F8042130
:101630003B69013B3B613B69002BD4DC7B680022AA
:1016400083F80B2100BF1837BD4680BD80B582B03E
:1016500000AF78607B6893F80B31062B02D978686D
:10166000FFF7A8FF7B6893F80B315A1CD1B27A6858
:1016700082F80B111A467B68134493F8043118461C
:101680000837BD4680BD000080B485B000AFB960AA
:101690007A603B600346FB737B68002B08DB7B684A
:1016A000032B05DC3B68002B02DB3B68032B01DDD1
:1016B000002316E0FA7BBB6803F003030C49920099
:1016C000134431F8133019463B689A007B68134481
:1016D00041FA03F303F00103002B14BF012300239D
:1016E000DBB218461437BD465DF8047B704700BF77
:1016F000F8EA007080B588B000AFF8607A603B60AF
:101700000B46FB720023FB613EE00023BB6135E02A
:10171000F87AFB69BA697968FFF7B6FF034683F088
:101720000103DBB2002B23D13A68BB6913447B6110
:10173000BA6AFB6913443B617B69002B05DB7B695B
:10174000092B02DC3B69152B01DD002320E03B69FE
:10175000002B0FDBF9683A6913469B0013445B00CA
:10176000CA187B6913441B78002B04D000230FE0B8
:1017700000BF00E000BFBB690133BB61BB69032B45
:10178000C6DDFB690133FB61FB69032BBDDD012372
:1017900018462037BD4680BD80B584B002AF786062
:1017A0007B6893F8E0207B6883F8DC207868FFF79B
:1017B0004DFF03461A467B6883F8E0207B680022D1
:1017C00083F8DD207B68032283F8DE207B6800221B
:1017D00083F8DF207B68002283F8E3207B68002207
:1017E000C3F8F4207B6893F8DC107B6893F9DD3054
:1017F0001A467B6893F9DE3018467B6893F9DF3030
:10180000009303467868FFF775FF034683F00103F2
:10181000DBB2002B03D07B68022283F8E42000BFF8
:101820000837BD4680BD000080B586B000AF786047
:1018300000237B6149E000233B6140E07B6893F833
:10184000DC007B6893F9DD3019467B693A69FFF764
:101850001BFF034683F00103DBB2002B2BD17B6817
:1018600093F9DE301A463B691344FB607B6893F9B9
:10187000DF301A467B691344BB60BB68002B1BDB5F
:10188000BB68152B18DCFB68002B15DBFB68092BEC
:1018900012DC7B6893F8DC301A46104B985C796850
:1018A000BA6813469B0013445B00CA18FB681344D4
:1018B00002461A7000E000BF3B6901333B613B699F
:1018C000032BBBDD7B6901337B617B69032BB2DDBD
:1018D00000BF00BF1837BD4680BD00BF30EB0070B1
:1018E00080B487B000AF78607B68002283F8FC206A
:1018F00000237B6133E00123FB740023FB6011E0D4
:1019000079687A6913469B0013445B00CA18FB6828
:1019100013441B78002B02D10023FB7405E0FB6805
:101920000133FB60FB68092BEADDFB7C002B13D045
:101930007B6893F8FC30032B0ED87B6893F8FC305F
:101940005A1CD1B27A6882F8FC1019467B69DAB267
:101950007B680B4483F8F8207B6901337B617B69EA
:10196000152BC8DD7B6893F8FC3018461C37BD4644
:101970005DF8047B7047000080B586B000AF7860EA
:1019800000237B612AE07A687B691344F8331B7873
:10199000BB60BB683B6115E03A6913469B0013448A
:1019A0005B007A68D0183B695A1E13469B001344AB
:1019B0005B007A6813440A2219460BF077FD3B69F5
:1019C000013B3B613B69002BE6DC7B680A2200217E
:1019D00018460BF03FFD7B6901337B617B6893F810
:1019E000FC301A467B699342CDDB7B6893F8FC3070
:1019F000FB60FB68042B01DD0423FB607B68D3F8EC
:101A0000E8201949FB6831F8133019467B68D3F890
:101A1000F030013301FB03F31A447B68C3F8E8207C
:101A20007B68D3F8EC20FB681A447B68C3F8EC2091
:101A30007B68D3F8EC300D4AA2FB0323DA087B68FD
:101A4000C3F8F0207B68D3F8F030132B03D97B6800
:101A50001322C3F8F0207B68002283F8FC2000BF2B
:101A60001837BD4680BD00BFB0EB0070CDCCCCCCEC
:101A700080B582B000AF78607868FFF7D5FE7868EF
:101A8000FFF72EFF0346002B08DD7B68012283F859
:101A9000E4207B680022C3F8002102E07868FFF7A9
:101AA0007BFE00BF0837BD4680BD000080B582B018
:101AB00000AF786039604FF48872002178680BF0CD
:101AC000C9FC3B68002B01D03B6800E0124B7A68F0
:101AD000C2F80C317868FFF76DFD7868FFF7B6FD46
:101AE00003461A467B6883F8E0207B68072283F868
:101AF000E1207B68002283F8E2207B68002283F8E3
:101B0000E4207B680022C3F8F0207868FFF744FEE9
:101B100000BF0837BD4680BD6745230180B582B050
:101B200000AF78607B68D3F80C21054B5340194611
:101B30007868FFF7BBFF00BF0837BD4680BD00BF18
:101B4000B979379E80B584B002AF786039607B6820
:101B500093F8E430002B25D17B6893F8DC107B6888
:101B600093F9DD3018467B6893F9DE301A463B68FE
:101B70001A447B6893F9DF30009313460246786875
:101B8000FFF7B8FD0346002B0DD07B6893F9DE30DC
:101B9000DAB23B68DBB21344DBB25AB27B6883F83B
:101BA000DE2000E000BF0837BD4680BD80B58CB0A8
:101BB00002AF786039607B6893F8E430002B40F026
:101BC00092807B6893F8DC30032B00F08E807B687A
:101BD00093F9DD30DBB203F003033B623B68002B7B
:101BE00001DD012200E003223B6A134403F00303FA
:101BF000FB617B6893F8DC30002B01D13D4B00E0AA
:101C00003D4BBB613B68002B01DD3B6A00E0FB699B
:101C10007B613B68002B01DD012301E04FF0FF33C6
:101C20003B6100237B625AE07A6913469B001344B0
:101C30005B001A46BB6913447A6A13F912301A46DC
:101C40003B6902FB03F3FB607A6913469B00134474
:101C50005B001A46BB691A447B6A5B00134493F924
:101C600001301A463B6902FB03F3BB607B6893F8C3
:101C7000DC107B6893F9DE301A46FB681A447B68F7
:101C800093F9DF301846BB68034400931346FA69A2
:101C90007868FFF72FFD0346002B1DD0FB695AB271
:101CA0007B6883F8DD207B6893F9DE30DAB2FB686D
:101CB000DBB21344DBB25AB27B6883F8DE207B6868
:101CC00093F9DF30DAB2BB68DBB21344DBB25AB24D
:101CD0007B6883F8DF2009E07B6A01337B627B6AE3
:101CE000042BA1DD02E000BF00E000BF2837BD46A5
:101CF00080BD00BF60EB007038EB007080B584B031
:101D000002AF78607B6893F8E430002B30D17B68B9
:101D100093F8DC107B6893F9DD301A467B6893F901
:101D2000DE3018467B6893F9DF30013300930346B9
:101D30007868FFF7DFFC0346002B15D07B6893F92A
:101D4000DF30DBB20133DBB25AB27B6883F8DF20CD
:101D50007B68D3F8E8305A1C7B68C3F8E8207B68BE
:101D60000022C3F8F42004E07868FFF781FE00E069
:101D700000BF0837BD4680BD80B586B002AF786031
:101D80007B6893F8E430002B33D10023FB600CE038
:101D90007B6893F9DF30DBB20133DBB25AB27B6888
:101DA00083F8DF20FB680133FB607B6893F8DC106D
:101DB0007B6893F9DD301A467B6893F9DE3018466C
:101DC0007B6893F9DF300133009303467868FFF7AF
:101DD00091FC0346002BDBD17B68D3F8E820FB683D
:101DE0005B001A447B68C3F8E8207868FFF740FE80
:101DF00000E000BF1037BD4680BD80B586B002AFA1
:101E000078607B6893F8E430002B60D17B6893F8AE
:101E1000E330002B5BD17B6893F8E230002B0AD0D3
:101E20007B6893F8E130FB737B6893F8DC207B6878
:101E300083F8E12015E07B6893F8E030FB73786865
:101E4000FFF704FC03461A467B6883F8E0207B68B2
:101E500093F8DC207B6883F8E1207B68012283F81B
:101E6000E2207B68FA7B83F8DC207B68002283F821
:101E7000DD207B68032283F8DE207B68002283F864
:101E8000DF207B68012283F8E3207B680022C3F80F
:101E9000F4207B6893F8DC107B6893F9DD301A46F8
:101EA0007B6893F9DE3018467B6893F9DF30009346
:101EB00003467868FFF71EFC034683F00103DBB29C
:101EC000002B05D07B68022283F8E42000E000BFED
:101ED0001037BD4680BD000080B586B002AF786087
:101EE00039607B6893F8E430012B17D17B68D3F815
:101EF00000213B681A447B68C3F800217B68D3F853
:101F00000031DB2B5CD97868FFF736FD7B68002257
:101F100083F8E4207868FFF73FFC51E07B6893F892
:101F2000E430002B4ED17B68D3F8F030132B28BF60
:101F30001323264A32F81330FB607B68D3F8F42071
:101F40003B681A447B68C3F8F4202DE07B68D3F823
:101F5000F420FB68D21A7B68C3F8F4207B6893F8FE
:101F6000DC107B6893F9DD301A467B6893F9DE302C
:101F700018467B6893F9DF30013300930346786895
:101F8000FFF7B8FB0346002B0AD07B6893F9DF30DC
:101F9000DBB20133DBB25AB27B6883F8DF2003E0A7
:101FA0007868FFF765FD0EE07B68D3F8F430FA68D7
:101FB0009A4208D87B6893F8E430002BC6D002E040
:101FC00000BF00E000BF1037BD4680BD88EB007049
:101FD00080B586B002AF78607B6893F9DF30FB6034
:101FE00002E0FB680133FB607B6893F8DC107B68E0
:101FF00093F9DD301A467B6893F9DE301846FB68AA
:102000000133009303467868FFF774FB0346002B07
:10201000E7D1FB6818461037BD4680BD80B588B053
:1020200000AFF860B9607A60BB68002B08DBBB6862
:10203000092B05DC7B68002B02DB7B68132B01DDA1
:10204000002334E07B680233FB61FB6893F8E430E3
:10205000002B22D1FB6893F9DE301A46BB689B1A2D
:10206000BB61FB6893F9DF301A46FB699B1A7B6101
:10207000FB6893F8DC00FB6893F9DD3019467B6957
:10208000BA69FFF701FB0346002B06D0FB6893F803
:10209000DC301A46084B9B5C09E0F968FA69134684
:1020A0009B0013445B00CA18BB6813441B78184696
:1020B0002037BD4680BD00BF30EB007080B485B0D6
:1020C00000AF786039607B6893F8E430012B01D071
:1020D00000231BE03B680233BB600023FB600DE084
:1020E0007A68FB681344F8331B781A46BB6893423E
:1020F00001D101230AE0FB680133FB607B6893F8A0
:10210000FC301A46FB689342EADB0023184614377A
:10211000BD465DF8047B704780B584B000AF0346D0
:10212000B9607A60FB73FB7B062B01D9002306E0C4
:10213000F87B7B68BA680021FFF7A6FA03461846C9
:102140001037BD4680BD80B584B000AFB9607A60FD
:102150003B600346FB73FB7B062B01D9002306E0A3
:10216000F87B3B687A68B968FFF78EFA0346184631
:102170001037BD4680BD000080B48BB000AF7860E2
:10218000396000237B626EE07B6A1B013B4A13448B
:102190003B623B6AB3F900301A467B6893425CDBD2
:1021A0003B6AB3F900301A463B6AB3F90430134472
:1021B0007A689A4251DA3B6AB3F902301A463B68B0
:1021C00093424ADB3B6AB3F902301A463B6AB3F9E1
:1021D000063013443A689A423FDA3B6A1B7A012B75
:1021E00038D13B6AB3F900301A463B6AB3F9043080
:1021F000002B00DA01335B101BB21344FB613B6A16
:10220000B3F902301A463B6AB3F90630002B00DA04
:1022100001335B101BB21344BB613B6AB3F904305A
:10222000002B00DA01335B101BB27B617A68FB691B
:10223000D31A3B613A68BB69D31AFB603B6903FB65
:1022400003F2FB6803FB03F31A447B6903FB03F30C
:102250009A4204DC7B6ADBB209E000BF00E000BF09
:102260007B6A01337B627B6A092B8DDD0A2318466A
:102270002C37BD465DF8047B704700BFCCEB007087
:1022800080B586B002AFF860B9601346FB80FA688B
:1022900013465B001344DB0003F11000BA681346D9
:1022A0005B001344DB0003F14001FB88009318231B
:1022B0001822FEF7DBFC00BF1037BD4680BD80B59D
:1022C00086B002AF786039607A6813465B001344C9
:1022D000DB001033FB603A6813465B001344DB00FD
:1022E0004033BB6041F2A303009318231822B9685E
:1022F000F868FEF7AFFB7B68002B08DD41F606139C
:10230000009318230122B968F868FEF7A3FB3B6825
:10231000002B08DD41F60613009301231822B9684B
:10232000F868FEF797FB00BF1037BD4680BD000080
:1023300080B58CB002AF786044F28D2300934FF4E7
:10234000F273F4223E210E20FEF710FC7B6893F816
:10235000E430002B04D17868FFF73AFE034600E032
:10236000544B7B6100237B6233E0796A7868FFF726
:10237000A5FE0346FB7200233B6224E07A6A396AB9
:102380007868FFF74BFE0346BB72FB7A002B06D042
:102390004FF6FF72796A386AFFF772FF10E0BB7A76
:1023A000002B09D0BB7A444A32F813301A46796AB6
:1023B000386AFFF765FF03E0796A386AFFF77FFF45
:1023C0003B6A01333B623B6A092BD7DD7B6A0133F1
:1023D0007B627B6A132BC8DD7B6893F8E430002BAB
:1023E00064D17B6893F9DF301A467B6993425DD0F4
:1023F0000023FB6157E00023BB614EE07B6893F84C
:10240000DC007B6893F9DD301946FB69BA69FFF798
:102410009AFE034683F00103DBB2002B35D17B68C3
:1024200093F9DE301A46BB6913443B617A69FB6954
:102430001344023BFB603B69002B28DB3B69092B03
:1024400025DCFB68002B22DBFB68132B1FDCFA6802
:1024500039697868FFF7E2FD0346002B19D13A6924
:1024600013465B001344DB0003F11200FA681346C5
:102470005B001344DB0003F1420143F60A2300939F
:1024800014231422FEF772FB04E000BF02E000BF39
:1024900000E000BFBB690133BB61BB69032BADDD4D
:1024A000FB690133FB61FB69032BA4DD00BF283707
:1024B000BD4680BD18FCFFFFBCEB007080B594B03A
:1024C00002AFF860B9607A603B6040F66203009347
:1024D0003B687A68B968F868FEF7BCFA44F28D2365
:1024E00000933B687A68B968F868FEF73FFB97F895
:1024F0005030062B00F2AA800E237B6204237B64FB
:102500004FF0FF333B640423FB634FF0FF33BB63A7
:1025100000237B632DE000233B6324E097F85030D9
:102520007A6B396B1846FFF7F7FD0346002B17D07F
:102530003A6B7B6C9A4201DA3B6B7B643A6B3B6C87
:102540009A4201DD3B6B3B647A6BFB6B9A4201DA8A
:102550007B6BFB637A6BBB6B9A4201DD7B6BBB636E
:102560003B6B01333B633B6B032BD7DD7B6B013351
:102570007B637B6B032BCEDD3A6C7B6C9A4267DB13
:102580003A6C7B6CD31A5A1C7B6A02FB03F33B62E6
:10259000BA6BFB6BD31A5A1C7B6A02FB03F3FB6119
:1025A0007A683B6AD31A002B00DA01335B101A46B3
:1025B000FB681A447B6C796A01FB03F3D31ABB6195
:1025C0003A68FB69D31A002B00DA01335B101A4614
:1025D000BB681A44FB6B796A01FB03F3D31A7B6176
:1025E0000023FB622EE00023BB6225E097F8503009
:1025F000FA6AB96A1846FFF78FFD0346002B18D018
:10260000BB6A7A6A03FB02F2BB69D018FB6A7A6A7A
:1026100003FB02F27B69D11897F850300E4AD35C65
:102620001A460E4B33F8123000937B6A7A6AFEF733
:102630001DFBBB6A0133BB62BB6A032BD6DDFB6AA1
:102640000133FB62FB6A032BCDDD02E000BF00E03B
:1026500000BF4837BD4680BD6CEC0070BCEB00701D
:1026600080B586B002AFF860B9607A6040F6620368
:1026700000931823BE22B968F868FEF7EBF94EF60E
:102680007E737A68B968F868FEF7AEFD00BF103750
:10269000BD4680BD80B588B002AF78607B6893F896
:1026A000E230002B03D07B6893F8E13000E0072391
:1026B000FB754FF487733B614023FB6048F2744322
:1026C000344AF9683869FEF7F4FCFB681A33FB609A
:1026D0007B68D3F8E8301A46F9683869FFF7C0FF1D
:1026E000FB682433FB6048F274432B4AF96838696D
:1026F000FEF7DFFCFB681A33FB607B68D3F8F03031
:102700001A46F9683869FFF7ABFFFB682433FB60B2
:1027100048F27443214AF9683869FEF7CAFCFB683D
:102720001A33FB607B68D3F8EC301A46F9683869D5
:10273000FFF796FFFB682833FB6048F27443184AA2
:10274000F9683869FEF7B5FCFB681A33FB607B68F3
:1027500093F8E03000934423BE22F9683869FFF70C
:10276000ADFEFB685033FB6048F274430D4AF968D4
:102770003869FEF79EFCFB681A33FB60FB7D009313
:102780004423BE22F9683869FFF798FE00BF183766
:10279000BD4680BD04D500700CD5007014D5007006
:1027A0001CD5007028D5007080B58AB002AFF860E3
:1027B000B9607A607B800923BB610023FB6161E023
:1027C000BA69FB69D31A5B00013B7B617B68022B12
:1027D0002FD07B68022B3FDC7B68002B03D07B680B
:1027E000012B13D038E0FA68FB69D01A7B69002B03
:1027F00000DA01335B105B421A46BB68D1187B8854
:1028000000937B690122FEF725F938E0FA68FB693D
:10281000D0187B69002B00DA01335B105B421A464B
:10282000BB68D1187B8800937B690122FEF712F9FF
:1028300025E07B69002B00DA01335B105B421A460E
:10284000FB68D018BA68FB69D11A7B880093012312
:102850007A69FEF7FFF812E07B69002B00DA01339A
:102860005B105B421A46FB68D018BA68FB69D11846
:102870007B88009301237A69FEF7ECF800BFFB69BF
:102880000133FB61FA69BB699A4299DB00BF00BF63
:102890002037BD4680BD80B586B002AF78607B68CA
:1028A00003F00103002B14BF01230023FB737B689B
:1028B0005B0803F00103002B14BF01230023BB734B
:1028C0007B68DB0803F00103002B14BF0123002306
:1028D0007B737B689B0803F00103002B14BF01236B
:1028E00000233B7343F2C81300934823B42240F201
:1028F00066211C20FEF7AEF843F2C8130093B42300
:1029000048224FF40C715220FEF7A4F845F6EE234E
:1029100000930123B42240F266211C20FEF79AF8AE
:1029200045F6EE2300930123B42240F2AD211C2092
:10293000FEF790F845F6EE230093B42301224FF4FE
:102940000C715220FEF786F845F6EE230093B4236F
:1029500001224FF40C719920FEF77CF845F6EE2326
:1029600000934823012240F266211C20FEF772F8F2
:1029700045F6EE2300934823012240F26621CF2042
:10298000FEF768F845F6EE230093012348224FF442
:102990000C715220FEF75EF845F6EE2300930123FA
:1029A000482240F2E3215220FEF754F8FB7B002B33
:1029B00009D047F6144300934623352240F267219D
:1029C0001D20FEF747F8BB7B002B09D047F61443C8
:1029D00000934623352240F267219A20FEF73AF809
:1029E0007B7B002B09D047F6144300933523462206
:1029F00040F231215320FEF72DF83B7B002B09D00C
:102A000047F6144300933523462240F2AE2153206B
:102A1000FEF720F843F2C81300934623462240F203
:102A200067215320FEF716F84EF67E73002240F21F
:102A30008A213C20FFF7B8FE4EF67E73012240F259
:102A40008A21B020FFF7B0FE4EF67E7302224FF4CB
:102A500014717620FFF7A8FE4EF67E7303224FF422
:102A600031717620FFF7A0FE00BF1037BD4680BD54
:102A700080B487B000AF0346FB80FB88DB0A9BB2C3
:102A800003F01F0213465B001344002B00DA0333EC
:102A90009B107B61FB885B099BB203F03F021346EE
:102AA0005B001344002B00DA03339B103B61FB886F
:102AB00003F01F0213465B001344002B00DA0333BC
:102AC0009B10FB607B691BB2DB021AB23B691BB235
:102AD0005B011BB213431AB2FB681BB213431BB258
:102AE0009BB218461C37BD465DF8047B704700005A
:102AF00080B58AB000AF786000237B626DE03B4A0E
:102B00007B6A13441B781B01394A13443B623B6ABE
:102B1000B3F900301A463B6AB3F90430002B00DAEF
:102B200001335B101BB21344FB613B6AB3F9023003
:102B30001A463B6AB3F90630002B00DA01335B100A
:102B40001BB21344BB613B6AB3F90430002B00DABB
:102B500001335B101BB27B61244A7B6A13441B78F0
:102B60001A467B68D34003F00103002B14BF0123F6
:102B70000023FB74FB7C002B02D03B6A5B8905E0E1
:102B80003B6A5B891846FFF773FF03467A69B969A8
:102B9000F869FEF7B2F845F6EE237A69B969F86983
:102BA000FEF7E8F83B6ADB681846FEF7BAFAF86009
:102BB000FB68002B00DA01335B105B421A46FB69AD
:102BC000D018BB69A3F10C013B6ADA684EF67E733C
:102BD000FEF76FFA7B6A01337B627B6A032B8EDD23
:102BE00000BF00BF2837BD4680BD00BF74EC007039
:102BF000CCEB007090B58BB002AF78600B46FB70E9
:102C00001346BB700023FB6167E0384AFB6913443D
:102C10001B781B01364A1344BB61344AFB691344D9
:102C20001B781A467B68D34003F00103002B14BFC6
:102C300001230023FB75BB69B3F900301846BB695B
:102C4000B3F902301946BB69B3F904301A46BB69BF
:102C5000B3F906301C46FB7D002B02D047F6144327
:102C600001E043F2C81300932346FEF709F91F4A17
:102C7000FB6913441B78082B02D1FB78002B02D18F
:102C8000BB69DB6800E01B4B3B613869FEF749FA22
:102C9000F860BB69B3F900301A46BB69B3F9043078
:102CA0001946FB68CB1A002B00DA01335B10D018F1
:102CB000BB69B3F902301A46BB69B3F90630183B59
:102CC000002B00DA01335B10D1184EF67E733A699F
:102CD000FEF7EFF9FB690133FB61FB69012B94DD22
:102CE00000BF00BF2437BD4690BD00BF78EC007028
:102CF000CCEB007030D5007080B586B002AF786044
:102D000039600E23FB60F423BB6041F28303009320
:102D10003B68BA687968F868FDF79CFE44F28D2339
:102D200000933B68BA687968F868FDF71FFF00BF39
:102D30001037BD4680BD000080B500AF40F6620090
:102D4000FDF760FE4EF67E73034A1421F020FEF775
:102D50000DFA00BF80BD00BF38D5007080B586B0C9
:102D600000AFF860B96011461A460B46FB71134676
:102D7000BB71F868FFF7DCFAF868FFF78BFCB868FE
:102D8000FFF789FDB868FFF7B3FEBA79FB791946FA
:102D9000B868FFF72FFF88237B61FB6893F8E43066
:102DA000022B34D1BE21E820FFF7A6FF4EF67E733A
:102DB000254AFA217869FEF7D9F948F27443234A83
:102DC0004FF496717869FEF7D1F9FB68D3F8E830D3
:102DD0001846FEF7E7F938613B69002B00DA01334A
:102DE0005B105B421A467B69D018FB68D3F8E82079
:102DF0004EF67E734FF4A771FEF7F6F948F274436E
:102E0000134A4FF4C1717869FEF7B0F917E0FB7906
:102E1000002B14D078214FF48870FFF76DFF4EF629
:102E20007E730C4A4FF491717869FEF79FF948F26E
:102E30007443094A4FF4AA717869FEF797F900BF05
:102E40001837BD4680BD00BF48D5007004D500705E
:102E500058D50070F4D4007070D500700D488546C8
:102E600003F05AFA0C480D490D4A002302E0D458E9
:102E7000C4500433C4188C42F9D30A4A0A4C0023C4
:102E800001E013600432A242FBD30AF0EBFA00F037
:102E90000FF8FEE700100020000000245800002476
:102EA00010ED007058000024480F0024FEE70000D9
:102EB00080B584B000AF00F077F83A4B5B6903F45B
:102EC0000033002B1BD1BFF34F8F00BFBFF36F8FB9
:102ED00000BF344B0022C3F85022BFF34F8F00BF16
:102EE000BFF36F8F00BF2F4B5B692E4A43F4003353
:102EF0005361BFF34F8F00BFBFF36F8F00E000BF80
:102F0000284B5B6903F48033002B38D1254B00221A
:102F1000C3F88420BFF34F8F00BF224BD3F880301B
:102F2000FB60FB685B0BC3F30E03BB60FB68DB0855
:102F3000C3F309037B60BB685A0143F6E073134097
:102F40007A68920717491343C1F860327B685A1EAA
:102F50007A60002BEFD1BB685A1EBA60002BE5D116
:102F6000BFF34F8F00BF0F4B5B690E4A43F48033B2
:102F70005361BFF34F8F00BFBFF36F8F00E000BFFF
:102F800003F0E0F903F016FB002000F0D5FFFDF799
:102F90001DFC002001F0DEF8FA2003F07FFB00BFEB
:102FA000F7E700BF00ED00E080B588B000AF3B1D43
:102FB00000221A605A609A60DA600023FB6103F015
:102FC000D7FC01233B71FB69DBB27B710023BB6043
:102FD0001F233B7387237B730023BB730023FB7387
:102FE00001233B7401237B740123BB740123FB7415
:102FF0003B1D184603F0DAFCFB690133FB61454BCE
:10300000BB61454B7B617B69002B1FD001233B716A
:10301000FB69DBB27B7100237B730123BB7303234A
:10302000FB7301233B7400237B740123BB740123D6
:10303000FB743B1D1A467969B86900F077F83B1DAF
:10304000184603F0B3FCFB690133FB61334BBB61F2
:10305000334A324BD31A7B617B69002B1FD001238B
:103060003B710323FB730023FB740023BB74002319
:103070007B74FB69DBB27B710123BB7300237B7321
:1030800001233B743B1D1A467969B86900F04EF87C
:103090003B1D184603F08AFCFB690133FB61214BA1
:1030A000BB61214B7B6101233B71FB69DBB27B710F
:1030B00000237B730123BB730323FB7300233B7447
:1030C00000237B740123BB740123FB743B1D1A4650
:1030D0007969B86900F02AF83B1D184603F066FCD0
:1030E000FB690133FB610BE000233B71FB69DBB241
:1030F0007B713B1D184603F059FCFB690133FB61F2
:10310000FB690F2BF0D9042003F010FC00BF20371F
:10311000BD4680BD0000009000000002001C072496
:10312000001C0724000000700000000880B586B075
:1031300000AFF860B9607A60284B1B780133DAB2CF
:10314000264B1A70254B1B78032B01D900F048F849
:10315000BB683B613B69002B01D1202303E03B6945
:10316000B3FA83F3DBB2C3F11E03DAB27B681A72DF
:103170007B681B7A0133012202FA03F31A46BB680B
:10318000934205D97B681B7A0133DAB27B681A72E5
:103190007B681B7A0133012202FA03F3013BFA68D0
:1031A00013407B617B69002B0AD0FA687B69D01AD7
:1031B000BA687B6913447A681946FFF7B7FF02E0E3
:1031C0007B68FA685A60054B1B78013BDAB2034B07
:1031D0001A7000BF1837BD4680BD00BFB40100247F
:1031E00080B400AF72B600BF00BFFDE780B400AF8F
:1031F00000BFBD465DF8047B704780B400AF00BFE0
:10320000FDE780B400AF00BFFDE780B400AF00BFB2
:10321000FDE780B400AF00BFFDE780B400AF00BFA2
:10322000FDE780B400AF00BFBD465DF8047B70478A
:1032300080B400AF00BFBD465DF8047B704780B42A
:1032400000AF00BFBD465DF8047B704780B500AF9E
:1032500003F004FA00BF80BD80B59AB000AFF860FB
:10326000B9607A603B6007F11C034C2200211846CC
:103270000AF0F0F807F1140300221A605A600223E2
:10328000FB610423BB620023FB6200233B633B6FB3
:10329000002B01D1A02300E080237B624FF48063E8
:1032A000BB634FF44053FB634FF400633B64002364
:1032B000BB643B68002B02D14FF0806301E04FF00C
:1032C000A0637B654FF00063FB657B68013B3B6659
:1032D0004FF000537B6607F11C0341F28832194618
:1032E000F86809F0F3FC0346002B02D04FF0FF33DF
:1032F00028E00123FB613B6F002B01D1202300E07C
:1033000000237B62BB68013B3B6607F11C0341F273
:1033100088321946F86809F0D9FC0346002B02D020
:103320004FF0FF330EE000237B6107F114031946D1
:10333000F86809F071FE0346002B02D04FF0FF330E
:1033400000E0002318466837BD4680BD80B598B0C0
:1033500000AFF860B9607A603B6007F114034C225B
:10336000002118460AF076F800237B6104233B62B3
:1033700000237B620023BB624023FB614FF4806328
:103380003B634FF440537B634FF40063BB63BB6804
:10339000FB6200233B644FF08063FB644FF00063EB
:1033A0007B6502233B653B68013BBB654FF00053E7
:1033B000FB6507F1140341F288321946F86809F0F9
:1033C00085FC0346002B02D04FF0FF330CE041F2A6
:1033D00088327968F86809F07CFD0346002B02D03A
:1033E0004FF0FF3300E0002318466037BD4680BD34
:1033F00080B598B000AFF860B9601346FB7107F173
:1034000014034C22002118460AF024F800237B61A3
:1034100004233B6200237B620023BB62C023FB6169
:103420004FF480633B634FF440537B634FF400637E
:10343000BB63BB68FB6200233B644FF08063FB64AB
:103440004FF000637B6502233B650023BB650023CF
:10345000FB6507F1140341F288321946F86809F058
:1034600035FC0346002B02D04FF0FF330DE0FB1D6F
:1034700041F288321946F86809F0B8FC0346002B7F
:1034800002D04FF0FF3300E0002318466037BD46FE
:1034900080BD80B596B000AF786007F10C034C2278
:1034A0000021184609F0D6FF0023FB600423BB610E
:1034B0000023FB6100233B62FF237B614FF48063A9
:1034C000BB624FF40053FB6200233B6300237B622B
:1034D0000023BB6300237B640023BB6400233B65A4
:1034E00000237B6507F10C0341F2883219467868A6
:1034F00009F0ECFB0346002B02D04FF0FF3303E052
:10350000012003F0CBF8002318465837BD4680BD94
:1035100080B584B000AF786039607B68002B03D140
:103520004FF0FF33FB602CE03B681A687B681A6041
:103530003B685A687B685A603B681A897B681A81C5
:103540003B68DA687B68DA603B681A697B681A61F5
:103550003B685A697B685A617B680C4ADA617B6810
:103560000B4A9A617B687A681A627B681B68002B39
:1035700004D07B681B689847F86002E04FF0FF3387
:10358000FB60FB6818461037BD4680BDCD3B007020
:10359000FF3B007080B483B000AF786039603B6857
:1035A00001221A703B6801225A703B6805229A700A
:1035B0003B684FF448725A603B684FF4F0729A606F
:1035C000002318460C37BD465DF8047B704790B564
:1035D00085B000AF78600023FB607B6893F82430EF
:1035E000002B06D17B681B6898477B68012283F813
:1035F000242000237B7248F247037B8116E07B681E
:103600001C697B68188907F1080279890123A047A2
:103610000346002B03D04FF0FF33FB600BE03A7AF8
:103620007B7A13447B727B8901337B817B8948F2EF
:10363000FE029342E3D9FB68002B1AD17B7A5B42EE
:103640007B727B681C697B68188907F1080201237B
:1036500048F2FF01A0470346002B03D04FF0FF3391
:10366000FB6006E03B7A7A7A9A4202D04FF0FF3351
:10367000FB60FB68002B02D04FF0FF33FB60FB6860
:1036800018461437BD4690BD80B485B000AF786051
:103690000023FB607B6893F82430012B03D17B6807
:1036A000002283F82420FB6818461437BD465DF8D5
:1036B000047B704780B586B000AF7860396008231E
:1036C000FB740023BB7400237B7400233B74002332
:1036D000FB733B689B7A03F00F03DBB2BB737B6821
:1036E00003F118023B685B68DBB21946104600F034
:1036F000CBFB0346002B03D04FF0FF337B61ADE0E3
:103700007B6803F118023B681B68DBB21946104660
:1037100000F085FB0346002B03D04FF0FF337B61A5
:103720009CE07B6803F1180007F11002012348F2C6
:10373000720100F094FA0346002B03D04FF0FF33E0
:103740007B618BE07B6803F1180007F10F02012316
:1037500048F2730100F083FA0346002B03D04FF0C8
:10376000FF337B617AE07B6803F1180007F10E02FA
:10377000012348F2740100F072FA0346002B03D0D3
:103780004FF0FF337B6169E07B6803F1180007F1BC
:103790001202012348F2750100F061FA0346002B82
:1037A00003D04FF0FF337B6158E07B6803F11800D2
:1037B00007F11102012348F2760100F050FA0346A6
:1037C000002B03D04FF0FF337B6147E07B6803F1B0
:1037D00018003B6803F10802012348F2770100F06A
:1037E0003EFA0346002B03D04FF0FF337B6135E0F8
:1037F0007B6803F118003B6803F10902012348F2DA
:10380000780100F02CFA0346002B03D04FF0FF3371
:103810007B6123E07B6803F1180007F113020123A9
:1038200048F2460100F01BFA0346002B03D04FF08C
:10383000FF337B6112E07B6803F1180007F113028C
:10384000012348F2400100F00AFA0346002B03D09E
:103850004FF0FF337B6101E000237B617B691846F9
:103860001837BD4680BD80B582B000AF7860396042
:103870007B6818333968184600F04DFB034618463C
:103880000837BD4680BD80B586B000AF786039602E
:1038900007F10C0300221A609A800023FB727868FB
:1038A00000F074F978617B69002B0BDB786800F01D
:1038B0006DF903461A463B681A603B681B68052B86
:1038C00006D901E07B6934E04FF0FF337B612FE0E4
:1038D0003B681B68002B2BD07B6803F1180007F1B5
:1038E0000C02062348F2501100F0A2F90346002B07
:1038F00003D04FF0FF337B611AE07B7B1B0203F4A4
:1039000070633A7B1A433B685A60FB7B1B0203F4EB
:103910007063BA7B1A433B689A607B6803F11800B6
:1039200007F10B02012348F24E1100F098F978617B
:103930007B6918461837BD4680BD80B590B000AF92
:103940007860396007F1100328220021184609F039
:1039500081FD0023FB73786800F018F9F863FB6BB6
:10396000002B0BDB786800F011F903461A463B6820
:103970001A603B681B68052B06D901E0FB6B99E0D8
:103980004FF0FF33FB6394E07B6803F1180007F10D
:103990001002282348F2501100F04AF90346002B88
:1039A00003D04FF0FF33FB6383E00023BB634DE0A4
:1039B000BB6BDB00013340333B4413F8303C1B024C
:1039C00003F47063BA6BD20040323A4412F8302CE0
:1039D0001A433968BB6B9B000B445A60BB6BDB001E
:1039E000033340333B4413F8303C1B0203F4706351
:1039F000BA6BD200023240323A4412F8302C43EA19
:103A000002013B68BA6B063243F82210BB6BDB0045
:103A1000043340333B4413F8303C19463A68BB6BDF
:103A20000A339B0013445960BB6BDB000733403300
:103A30003B4413F8303CDB09DBB219463B68BA6BF8
:103A4000103243F82210BB6B0133BB633B681B6829
:103A5000BA6B9A42ACD33B681B68BB631BE03A6805
:103A6000BB6B9B00134400225A603B68BA6B063262
:103A7000002143F822103A68BB6B0A339B001344C1
:103A800000225A603B68BA6B1032002143F82210C2
:103A9000BB6B0133BB63BB6B042BE0D97B6803F1C9
:103AA000180007F10F02012348F24E1100F0D7F879
:103AB000F863FB6B18464037BD4680BD80B582B0C9
:103AC00000AF786039607B6818333968184600F0B9
:103AD00051F9034618460837BD4680BD90B585B0FC
:103AE00000AF78600023FB607B68DC697B68186A44
:103AF00007F10B02012348F24D01A0470346002BBA
:103B000018D17B6803F118007B6893F8253003F027
:103B10000303DAB2FB7A23F00303DBB21343DBB215
:103B2000194600F0E6F90346002B06D04FF0FF33AC
:103B3000FB6002E04FF0FF33FB60FB681846143770
:103B4000BD4690BD80B483B000AF786000231846B6
:103B50000C37BD465DF8047B704780B483B000AF7E
:103B60007860002318460C37BD465DF8047B70472B
:103B700080B582B000AF78607B681833184600F0DB
:103B80003AF9034618460837BD4680BD80B584B073
:103B900000AF78607B68183307F10B0211461846B6
:103BA00000F0F9F80346002B03D04FF0FF33FB6021
:103BB00007E0FB7A052B02D90023FB6001E0FB7ACA
:103BC000FB60FB6818461037BD4680BD90B587B0D6
:103BD00000AFF8607A601A460B467B8113463B8142
:103BE000FB687B617B691C697B6918893B897989E2
:103BF0007A68A047034618461C37BD4690BD90B56D
:103C000087B000AFF8607A601A460B467B81134696
:103C10003B81FB687B617B69DC687B6918893B8938
:103C200079897A68A047034618461C37BD4690BD7F
:103C300090B585B000AFF8607A601A460B467B817C
:103C400013463B81FB685C68FB6898683B8979890F
:103C50007A68A047034618461437BD4690BD90B514
:103C600089B000AFF8607A601A460B467B81134634
:103C70003B810023FB6100237B760123FB75FB68FE
:103C80001C68FB6898683B8979897A68A047034675
:103C9000002B02D04FF0FF33FB617B8948F24602D4
:103CA000934262D97B8948F2FE0293425DD848F282
:103CB00047037B8317E0FB685C68FB68986807F143
:103CC0001802798B0123A0470346002B03D04FF045
:103CD000FF33FB6104E07A7E3B7E1344DBB27B76EC
:103CE0007B8B01337B837B8B48F2FE029342E2D9CC
:103CF000FB69002B39D17B7E5B42DBB27B76FB68B4
:103D00005C68FB68986807F11802012348F2FF011C
:103D1000A0470346002B03D04FF0FF33FB6124E0A4
:103D20007A7E3B7E9A4220D0FB681C68FB689868CC
:103D300007F11902012348F2FF01A0470346002BB7
:103D400003D04FF0FF33FB610FE0FB681C68FB689A
:103D5000986807F1170201234FF40141A047034679
:103D6000002B02D04FF0FF33FB61FB69184624376C
:103D7000BD4690BD80B582B000AF78603960012348
:103D80003A6848F24B117868FFF752FF034618462D
:103D90000837BD4680BD80B584B000AF786039601B
:103DA00001233A6848F24E117868FFF741FFF86046
:103DB000FB68002B17D13B681B78802B0BD13B682D
:103DC00000221A7001233A6848F24E117868FFF712
:103DD00046FFF86007E03B681B7803F00F03DAB298
:103DE0003B681A7002E0FB68002BD9D0FB681846CC
:103DF0001037BD4680BD80B584B000AF7860002329
:103E0000FB7207F10B02012348F24E117868FFF7AD
:103E100026FFF860FB6818461037BD4680BD80B5A8
:103E200084B000AF78600B46FB700023FB6007F1A5
:103E30000B02012348F271017868FFF7F9FE03468F
:103E4000002B03D04FF0FF33FB6018E0FB7A23F028
:103E50000F03DAB2FB7803F00F03DBB21343DBB2DC
:103E6000BB7207F10A02012348F271017868FFF77B
:103E7000F6FE0346002B02D04FF0FF33FB60FB68D9
:103E800018461037BD4680BD80B584B000AF78605D
:103E90000B46FB700023FB6007F10B02012348F285
:103EA00071017868FFF7C4FE0346002B03D04FF082
:103EB000FF33FB6018E0FB7823F00F03DAB2FB7AE4
:103EC00003F00F03DBB21343DBB2BB7207F10A024C
:103ED000012348F271017868FFF7C1FE0346002B09
:103EE00002D04FF0FF33FB60FB6818461037BD4629
:103EF00080BD80B582B000AF78600B46FB70FA1CC5
:103F0000012348F24D017868FFF7A9FE03461846E1
:103F10000837BD4680BD80B582B000AF786039609B
:103F200004233A6848F240117868FFF781FE03469F
:103F300018460837BD4680BD80B58EB000AF034639
:103F4000FB7100237B6307F11C0300221A605A6097
:103F50009A60DA601A61FB79022B26D0022B50DCC2
:103F6000002B02D0012B10D04BE005F04FF84B4B4B
:103F7000D3F84031494A43F48043C2F84031474BBB
:103F8000D3F84031BB61BB6967E005F03FF8434BB4
:103F9000D3F84031414A43F48043C2F840313F4BAB
:103FA000D3F840317B617B6957E005F00BF803469D
:103FB000002B03D06FF003037B634EE002F062FB43
:103FC00038630AE002F05EFB02463B6BD31AB3F59E
:103FD0007A7F02D96FF003035CE0314BDB6803F0BA
:103FE0008063002BEED02D4BD3F840312B4A43F4A5
:103FF0008053C2F84031294BD3F840313B613B69D3
:104000002BE004F0DFFF0346002B03D06FF0030327
:104010007B6321E002F036FB38630AE002F032FBFA
:1040200002463B6BD31AB3F57A7F02D96FF00303D4
:1040300030E01B4BDB6803F08063002BEED0174BA6
:10404000D3F84031154A43F48053C2F84031134B42
:10405000D3F84031FB60FB6800BF7B6B002B18D1AD
:10406000FB79104A32F81330FB6101233B620123D4
:104070007B620323BB62FB790B4A52F8233007F1C2
:104080001C021146184603F095F8FB79184600F01B
:1040900037F87B6B18463837BD4680BD0044025860
:1040A000004802587CEC00703400002480B582B0D7
:1040B00000AF0346FB71FB79012B0CD8FB790E4A4C
:1040C00052F82300FB790D4A32F8133001221946C9
:1040D00003F094FA0BE0FB79074A52F82300FB79CE
:1040E000064A32F813300022194603F087FA0023FB
:1040F00018460837BD4680BD340000247CEC0070B3
:1041000080B582B000AF0346FB71FB79012B0CD860
:10411000FB790E4A52F82300FB790D4A32F813302E
:104120000022194603F06AFA0BE0FB79074A52F8BD
:104130002300FB79064A32F813300122194603F0B6
:104140005DFA002318460837BD4680BD34000024C0
:104150007CEC007080B582B000AF0346FB71FB7948
:10416000074A52F82320FB79064931F813301946E3
:10417000104603F05BFA002318460837BD4680BDA1
:10418000340000247CEC007080B582B000AF0023C6
:104190007B60164B164A1A60164B1B68002B1FD10A
:1041A000144B1B680133134A1360104803F066FD7B
:1041B0000346002B14D10D4800F060FB05F01AFCFB
:1041C00003460D49184600F0E3F803461946074830
:1041D00000F038F80346002B02D06FF007037B6035
:1041E0007B6818460837BD4680BD00BFC00B002461
:1041F00000540040B8010024A086010080B582B0C0
:1042000000AF00237B600D4B1B68013B0B4A136022
:104210000A4B1B68002B0BD1094800F08DFB0848A6
:1042200003F0BAFA0346002B02D06FF007037B605D
:104230007B6818460837BD4680BD00BFB801002422
:10424000C00B002480B584B000AF786039600023D3
:10425000FB737B683A685A607B6800229A607B68CF
:104260000122DA607B6800221A617B6800225A61B1
:104270007B6800229A617B680022DA617B680022F9
:104280001A62786803F0ECF90346002B02D0012390
:10429000FB7314E00023BB60B968786803F0CAFFC1
:1042A0000346002B02D00123FB7308E0002178684D
:1042B00004F00BF80346002B01D00123FB73FB7BBA
:1042C00018461037BD4680BD80B588B002AFBA60D1
:1042D0001A460346FB810B46BB811346FB80B98916
:1042E000F889FB880093BB68022200F049FB034673
:1042F000002B02D100237B610CE0094803F0CCFCC9
:104300000346042B03D16FF065037B6102E06FF07D
:1043100003037B617B6918461837BD4680BD00BF2B
:10432000C00B002480B588B002AFBA601A460346BD
:10433000FB810B46BB811346FB80B989F889FB885A
:104340000093BB68022200F041FB0346002B02D120
:1043500000237B610CE0094803F09EFC0346042B1C
:1043600003D16FF065037B6102E06FF003037B61B3
:104370007B6918461837BD4680BD00BFC00B0024BE
:1043800080B500AF02F07EF90346184680BD0000FC
:1043900080B586B000AF7860396000237B617B68B0
:1043A000002B6BD03B68002B68D000233B6160E0A2
:1043B000354A3B692C2101FB03F3134404331B688A
:1043C0003A689A4252D3304A3B692C2101FB03F3ED
:1043D000134408331B683A689A4247D839697868A9
:1043E00000F056F83969786800F040F9F860FB6829
:1043F0007F2B42D82549FA6813469B0013449B0043
:104400000B441B6819072148FA6813469B001344A4
:104410009B00034404331B681B0503F4700319431A
:104420001A48FA6813469B0013449B000344083360
:104430001B681B0403F4702319431448FA681346DD
:104440009B0013449B0003440C331B681B029BB26C
:1044500019430E48FA6813469B0013449B0003441B
:1044600010331B68DBB20B437B6106E03B69013311
:104470003B613B69022B9BD900E000BF7B6918467A
:104480001837BD4680BD00BF84EC0070BC0100241D
:1044900080B48FB000AF7860396010237B637B6895
:1044A0005A086E4B13447A68B3FBF2F3FB61322374
:1044B000BB614FF482737B61694A3B682C2101FB2D
:1044C00003F3134424331B681846654A3B682C21C8
:1044D00001FB03F313440C331B68C218BB69D21AE7
:1044E0005F493B682C2000FB03F30B4428331B6817
:1044F0000333F96901FB03F3D31A3B63584A3B6862
:104500002C2101FB03F3134410331B681846544A53
:104510003B682C2101FB03F3134420331B68C21AB0
:104520007B69D21A4E493B682C2000FB03F30B44F5
:1045300028331B680433F96901FB03F3D31AFB62C8
:10454000474A3B682C2101FB03F3134420331B68CB
:104550001846434A3B682C2101FB03F313441433F0
:104560001B6803443B613B6B002B01DC00233B6376
:10457000FB6A002B01DC0023FB620023BB6262E0CC
:1045800000237B6259E07B6A0133BA6A013203FB84
:1045900002F2FB6902FB03F3FB603B69FA689A4293
:1045A00048D300233B6242E0BB6A01333A6A03FB13
:1045B00002F2FB6902FB03F3BB603B6BBA689A42F1
:1045C00032D3FB6ABA689A422ED8BA6A7B6B9A4297
:1045D0002AD0244B1A68244913469B0013449B009D
:1045E0000B44BA6A1A601F4B1A681F4913469B0096
:1045F00013449B000B4404337A6A1A60194B1A68FF
:10460000194913469B0013449B000B4408333A6A34
:104610001A60BB6A7B63134B1B680133114A13603A
:10462000104B1B687F2B12D83B6A01333B623B6AFD
:104630000F2BB9D97B6A01337B627B6A0F2BA2D91E
:10464000BB6A0133BB62BB6A0F2B99D900E000BF84
:104650003C37BD465DF8047B704700BF00CA9A3BFB
:1046600084EC0070BC0B0024BC01002480B493B027
:1046700000AF786039604FF0FF337B647B685A0885
:104680007A4B13447A68B3FBF2F3FB62784A3B68D7
:104690002C2101FB03F313441B685A08734B13448A
:1046A00073493A682C2000FB02F20A441268B3FBFB
:1046B000F2F3BB6232237B626D4A3B682C2101FB23
:1046C00003F3134428331A68FB6A02FB03F33B62CB
:1046D000674A3B682C2101FB03F3134404331B6836
:1046E000624AB2FBF3F3FB61614A3B682C2101FB98
:1046F00003F3134408331B685C4AB2FBF3F3BB615A
:10470000BB6A3B6400237B63A3E05A497A6B134680
:104710009B0013449B000B441B685A1CFB6A02FB62
:1047200003F37B610023FB638CE07A6A3B6A1A44E3
:10473000FB6B0133796903FB01F1FB6A5B000B44FE
:1047400013443B614A4A3B682C2101FB03F31344A9
:1047500018331B683A699A4271D93A697B6AD21A4E
:104760003B6AD31A9B08FA6A9A4268D20023BB6359
:1047700062E07A6A3B6A1A44BB6B0133796903FBD6
:1047800001F1FB6A5B000B441344FB603A69FB6870
:104790001A4437493B682C2000FB03F30B442033B9
:1047A0001B681A4432493B682C2000FB03F30B447E
:1047B00024331B681344BB60BA68BB699A4238D380
:1047C000BA68FB699A4234D8294A3B682C2101FB1C
:1047D00003F313441C331B68FA689A4229D3FA6A1C
:1047E000FB689A4225D2BA68BB6AD31A3B633B6B1B
:1047F000002B02DA3B6B5B423B633B6B3A6C9A42A9
:1048000017D93B6B3B641B497A6B13469B001344DF
:104810009B000B441033FA6B1A6016497A6B1346EF
:104820009B0013449B000B440C33BA6B1A607B6BE8
:104830007B64BB6B0133BB63BB6BFF2B99D9FB6BF9
:104840000133FB63FB6BFF2B7FF66FAF7B6B013399
:104850007B63094B1B687A6B9A42FFF456AF7B6C03
:1048600018464C37BD465DF8047B704700CA9A3B3A
:1048700084EC0070BC010024BC0B002480B58AB01D
:1048800000AF78602A4BD3F84031294A43F0020345
:10489000C2F84031264BD3F840313B613B69244B91
:1048A000D3F84031224A43F00203C2F84031204B92
:1048B000D3F84031FB60FB6840237B611223BB616E
:1048C0000023FB6102233B6204237B6207F1140394
:1048D0001946184802F06EFC4FF400737B61042304
:1048E0007B6207F114031946124802F063FC104B77
:1048F000D3F848310E4A43F40013C2F848310C4B48
:10490000D3F84831BB60BB68094BD3F89030084AF4
:1049100043F40013C2F89030054BD3F89030044AAA
:1049200023F40013C2F8903000BF2837BD4680BD85
:10493000004402580004025880B588B000AF786087
:104940004023FB60FB6819460B4802F093FD4FF4CF
:104950000073FB60FB681946074802F08BFD074BAC
:10496000D3F84831054A23F40013C2F8483100BF98
:104970002037BD4680BD00BF0004025800440258E5
:1049800080B588B004AF7B600346FB810B46BB81DA
:1049900013467B817889BA89F9894FF47A73029337
:1049A0003B8B01937B6800930346074802F038FF76
:1049B0000346002B01D1002301E06FF007031846E6
:1049C0001037BD4680BD00BFC00B002480B588B045
:1049D00004AF7B600346FB810B46BB8113467B81A2
:1049E0007889BA89F9894FF47A7302933B8B0193E2
:1049F0007B6800930346074803F026F80346002B24
:104A000001D1002301E06FF0070318461037BD46BF
:104A100080BD00BFC00B002480B58EB000AFF86031
:104A2000B9607A603B6000237B63554B1B687B61F8
:104A3000BB68012B08D8FB68002B05D17B68022BD3
:104A400006D07B68012B03D06FF001037B638EE0FF
:104A50007B68022B09D102233B634A4AFB685B0156
:104A60001344103302221A6008E000233B63454AD6
:104A7000FB685B011344103304221A60414AFB684F
:104A80005B0113440C337A681A603E4AFB685B0191
:104A900013443A681A603B4AFB685B0113440433D1
:104AA0003A6C1A60384B394A1A60394B394A1A60E5
:104AB000354800F049FA01224FF40041364802F02F
:104AC0009DFD334800F03CFB2F4800F0FEF8034604
:104AD000002B03D06FF003037B630AE03A6C396864
:104AE000294800F05DF80346002B02D06FF0030365
:104AF0007B637B6B002B3AD107F11403194600202E
:104B000000F060FE0346002B03D04FF0FF337B63C1
:104B10002DE0002000F060FF0346002B03D06FF073
:104B200003037B6323E00023BB613B68FB6100233D
:104B30003B623B6C7B623B6BBB624FF01043FB62A2
:104B400007F118031A4600210F4800F075F80346D4
:104B5000002B02D06FF003037B63104800F054FB7E
:104B6000084AFB685B011344183301221A60F86895
:104B700000F0B0F97B6B18463837BD4680BD00BFEA
:104B800088D500707C0D0024D40C00240010005047
:104B90006C0C00240010005200100258140C002469
:104BA00080B584B000AFF860B9607A60FB68214AD4
:104BB0001A60FB6800225A60FB6800229A60FB685A
:104BC0000022DA60FB6800221A61FB6804225A6145
:104BD000FB680C22DA61BB6803F10C02FB685A62C5
:104BE000BB6803F11402FB68DA62FB6804229A6175
:104BF000FB680C221A627B6803F10C02FB689A6264
:104C00007B6803F11402FB681A63FB68FF2283F8D8
:104C10003420FB68FF2283F83520FB68FF2283F8ED
:104C20003620F86803F0DCFE034618461037BD4610
:104C300080BD00BF0010005080B592B000AFF8609A
:104C4000B9607A6007F1140334220021184608F095
:104C500001FC7B681B687B617B685B68BB617B6870
:104C60009B68FB617B68DB683B627B681B697B62DE
:104C7000FF23BB620023FB624FF4C0633B63072347
:104C80007B637B685B69BB637B685A687B681B6876
:104C9000D31AFB637B68DA687B689B68D31A3B6432
:104CA000002387F84430002387F84530002387F835
:104CB000463007F11403BA681946F86803F037FF65
:104CC000034618464837BD4680BD80B5D0B000AF1A
:104CD00007F5A073A3F59E73186007F1A80390224F
:104CE0000021184608F0B6FB07F5A073A3F59A73E8
:104CF00018469C231A46002108F0ACFB07F5A07368
:104D0000A3F59A7302225A6707F5A073A3F59A7365
:104D100002221A6007F5A073A3F59A730122DA60E4
:104D200007F5A073A3F59A7300221A6107F5A07323
:104D3000A3F59A7340225A6107F5A073A3F59A73FD
:104D400000225A6207F5A073A3F59A730022DA6471
:104D500007F5A073A3F59A7300229A6707F5A0736D
:104D6000A3F59A730422DA6707F5A073A3F59A7383
:104D70001922C3F8802007F5A073A3F59A730222C5
:104D8000C3F8842007F5A073A3F59A730122C3F832
:104D9000882007F5A073A3F59A731022C3F88C201E
:104DA00007F5A073A3F59A730122C3F8902007F5C5
:104DB000A073A3F59A730122C3F8942007F5A0739A
:104DC000A3F59A730022C3F898204FF480324FF075
:104DD0000003C7E92A230023C7F8F03007F10C03CA
:104DE000184604F023F90346002B03D0012387F86B
:104DF0003F3107E007F1A803184605F0F9F903462B
:104E000087F83F3197F83F31184607F5A077BD4640
:104E100080BD000080B584B000AF786039600023A9
:104E2000FB607B68002B03D06FF00103FB601CE08C
:104E30003B68002B07D10F4A7B685B011344183392
:104E400000221A6011E039680B4803F0E4FE0346C3
:104E5000002B03D06FF00303FB6006E0054A7B687C
:104E60005B011344183301221A60FB68184610379F
:104E7000BD4680BD7C0D0024D40C002480B586B0D6
:104E800000AFF860B9607A6000237B61FB68002B9B
:104E900003D06FF001037B6112E00C4AFB685B01F9
:104EA000134418331B68012B05D1BA687968084888
:104EB00003F07BFE04E0BA687968054803F0DAFE87
:104EC0007B6918461837BD4680BD00BF7C0D0024A5
:104ED000D40C002480B588B000AF78600023FB615B
:104EE00007F1080300221A605A609A60DA601A61BA
:104EF0007B68002B03D06FF00103FB611AE0104BBD
:104F00001B689A690E4B1B6842F001029A610123EB
:104F1000FB6001233B614FF40043BB6007F10803D2
:104F20001946084802F046F901224FF400410548AD
:104F300002F064FBFB6918462037BD4680BD00BF08
:104F4000D40C00240010025880B58EB000AF7860F9
:104F50007B681B68734A934240F0DF80724BD3F842
:104F60004431714A43F00203C2F844316E4BD3F826
:104F700044313B623B6A6C4BD3F840316A4A43F0A0
:104F80002003C2F84031684BD3F84031FB61FB6924
:104F9000654BD3F84031644A43F00203C2F8403114
:104FA000614BD3F84031BB61BB695F4BD3F84031F3
:104FB0005D4A43F04003C2F840315B4BD3F84031C7
:104FC0007B617B69584BD3F84031574A43F001036A
:104FD000C2F84031544BD3F840313B613B69524BEE
:104FE000D3F84031504A43F01003C2F840314E4BE1
:104FF000D3F84031FB60FB680223BB620023FB62F5
:1050000003233B634FF420437B620A237B6307F156
:1050100024031946454802F0CDF845F618437B6253
:105020000D237B6307F124031946404802F0C2F8C0
:1050300049F603137B620D237B6307F124031946B2
:105040003B4802F0B7F840237B620C237B6307F1F7
:1050500024031946364802F0ADF84FF4C0637B6272
:105060000E237B6307F124031946314802F0A2F8AE
:1050700046F207037B620D237B6307F12403194685
:105080002C4802F097F84FF400637B620B237B639C
:1050900007F124031946284802F08CF801237B62AB
:1050A0000B237B6307F124031946244802F082F89E
:1050B0004FF440637B620E237B6307F124031946A0
:1050C0001E4802F077F848F280237B620D237B6351
:1050D00007F124031946194802F06CF80123BB625A
:1050E0000023FB6201233B634FF400437B6207F123
:1050F00024031946104802F05DF80B4BD3F88C30AE
:10510000094A43F00203C2F88C30074BD3F88C30C5
:10511000054A23F00203C2F88C3000BF3837BD4681
:1051200080BD00BF00100050004402580004025827
:1051300000000258001802580010025800140258CB
:1051400080B485B000AF78607B681B68104A9342DA
:1051500018D1104BD3F834310E4A43F00203C2F891
:1051600034310C4BD3F83431FB60FB68094BDB6FF7
:10517000084A43F00203D367064BDB6F054A23F06E
:105180000203D36700BF1437BD465DF8047B704748
:10519000001000520044025880B58AB000AF786019
:1051A000174BD3F84031164A43F04003C2F8403160
:1051B000134BD3F840313B613B69114BD3F8483175
:1051C0000F4A43F40073C2F848310D4BD3F848310D
:1051D000FB60FB680223BB610023FB6101233B6290
:1051E00001237B624FF400437B6107F114031946EE
:1051F000044801F0DFFF00BF2837BD4680BD00BF77
:10520000004402580018025880B582B000AF7860A0
:105210007868FFF7C1FF7B68244A1A60786803F05A
:1052200099F97B6800229A627B6800225A627B6847
:1052300000225A607B6800229A607B6800221A6113
:105240007B684FF6FF725A617B684FF400329A61B7
:105250007B680022DA617B680022DA627B680022C8
:105260001A637B6842F210721A627B6800225A63EA
:105270007B680022DA60786803F074F80C4B41F226
:1052800087321A600A4B01225A6001220849786865
:1052900003F086FA074B3222DA610121786803F0C5
:1052A00015FA00BF0837BD4680BD00BF002400408E
:1052B000640C00247C0D002480B588B000AF7860B9
:1052C00039600023FB617B68002B1CD13B681B68A5
:1052D000002B18D03B681B68B3F5487F13D83B6898
:1052E0005B68002B0FD03B685B68B3F5F07F0AD892
:1052F0003B68DA683B6819683B685B688B4228BF8B
:105300000B469A4203D96FF00103FB618BE078688A
:1053100000F0F2F90346002B03D04FF0FF33FB619E
:1053200081E007F10C0300221A605A609A603B6822
:1053300019683F487A6813469B001344DB00034416
:1053400019603B6859683A487A6813469B001344D1
:10535000DB000344043319603B68996834487A6879
:1053600013469B001344DB000344083319603B6879
:10537000D9682F487A6813469B001344DB00034426
:105380000C3319602B4B1B68DB692B497A6851F889
:10539000222007F10C01104698470346002B03DA40
:1053A0006FF00403FB613EE0396921487A681346D7
:1053B0009B001344DB0003441033196079691C48D7
:1053C0007A6813469B001344DB00034414331960CE
:1053D0000023BB6124E03B681A683B68DB68134428
:1053E000591C13487A6813469B0013445B00BA6942
:1053F0001344063340F823103B685A683B68DB6867
:105400001344591C0A487A6813469B0013445B00F6
:10541000BA691344083340F82310BB690133BB61F8
:10542000BB69012BD7D9FB6918462037BD4680BD23
:10543000A40D00249C0D0024A00D002480B58AB08A
:1054400000AF7860396000237B627B68002B03D05B
:105450006FF001037B6244E107F1080300221A6048
:105460005A609A60A14B1B681B69A1497A6851F880
:10547000222007F10801104698470346002B03DA63
:105480006FF004037B622CE1BB68002B00F01081FD
:10549000FB683B623B69FB6196497A6813469B0057
:1054A0001344DB000B4408331B6803F00803002B94
:1054B00003D03B693B62FB68FB618E497A68134607
:1054C0009B001344DB000B4408331B6803F002030A
:1054D000002B0CD087497A6813469B001344DB00ED
:1054E0000B4410331A68FB68D31A013B3B628149B5
:1054F0007A6813469B001344DB000B4408331B6897
:1055000003F00403002B0BD07A497A6813469B0002
:105510001344DB000B4414331A683B69D31AFB6154
:1055200074497A6813469B001344DB000B441B68E4
:105530003A6A02FB03F16F487A6813469B001344F2
:10554000DB00034410331B68B1FBF3F23B685A6085
:1055500068497A6813469B001344DB000B4404330C
:105560001B68FA6902FB03F162487A6813469B00E4
:105570001344DB00034414331B68B1FBF3F23B68B4
:105580009A60BA683B681A603B68596859487A68FB
:1055900013469B001344DB00034418331B689942F5
:1055A0000CD93B68596853487A6813469B001344EA
:1055B000DB00034418331B68CB1A0BE04D497A68B3
:1055C00013469B001344DB000B4418331A683B68F6
:1055D0005B68D31ABB613B68996846487A68134692
:1055E0009B001344DB00034420331B6899420CD911
:1055F0003B6899683F487A6813469B001344DB0078
:10560000034420331B68CB1A0BE03A497A681346EF
:105610009B001344DB000B4420331A683B689B68F3
:10562000D31A7B6133497A6813469B001344DB002D
:105630000B440C331B68BA699A420BD82D497A681F
:1056400013469B001344DB000B440C331B687A6940
:105650009A4216D93B68596826487A6813469B00D7
:105660001344DB000344183319603B6899682148F0
:105670007A6813469B001344DB000344203319600F
:105680002FE01C497A6813469B001344DB000B444F
:1056900018331A683B685A6016497A6813469B00AB
:1056A0001344DB000B4420331A683B689A6018E00F
:1056B0003B6800221A600F497A6813469B00134426
:1056C000DB000B4418331A683B685A6009497A6852
:1056D00013469B001344DB000B4420331A683B68DD
:1056E0009A607B6A18462837BD4680BD9C0D002411
:1056F000A00D0024A40D002480B58AB000AF78600E
:1057000000237B620023BB60BA23BB82234BFB6078
:10571000234B3B61234BFB61234BBB61234B3B6220
:1057200007F10C0319462248FDF7F2FE0346002B51
:1057300003D06FF007037B622BE007F108031946E3
:105740001B48FEF790F80346002B03D06FF00403CC
:105750007B621EE0BB68174A934203D06FF00603DA
:105760007B6216E0144A7B68114942F82310134B00
:10577000134A1A60114B1B681B680F497A6851F86D
:105780002220104698470346002B02D06FF00403F6
:105790007B627B6A18462837BD4680BD8941007010
:1057A000FD41007025430070C942007081430070C4
:1057B000CC0D002439313100A00D00249C0D0024B3
:1057C0000400002480B58AB000AF786039600023FF
:1057D0007B627B68002B03D06FF001037B6293E058
:1057E0004C497A6813469B0013440B441B78002BEA
:1057F00040F08A807A6813465B0013445B01464A96
:105800001344184600F0D8FA3B685B78002B03D0AD
:105810003B689B78002B02D1404B3B6222E03B6807
:105820005B78042B03D03B689B78802B02D13C4BE8
:105830003B6217E03B685B78082B03D03B689B78A2
:10584000402B02D1374B3B620CE03B685B780C2B62
:1058500003D03B689B78C02B02D1334B3B6201E005
:10586000324B3B62022005F0B5FDF861FA693B6AF4
:10587000B2FBF3F33B61FB693A6AB3FBF2F2396ABC
:1058800001FB02F29B1A002B02D13B69013B3B61F9
:105890001823FB6000237B617A6813465B00134486
:1058A0005B011D4A134407F10C021146184600F033
:1058B0003FF80346002B03D06FF003037B6223E025
:1058C0007A6813465B0013445B01134A134418467D
:1058D000FDF7DFFD0346002B03D06FF004037B626E
:1058E00012E03968786800F007F90346002B03D00E
:1058F0006FF004037B6207E006497A6813469B0059
:1059000013440B4401221A707B6A18462837BD469F
:1059100080BD00BF44000024F40D00248014EF0378
:1059200040357F06406BED0780F5E40900C2EB0BC4
:1059300080B584B000AF78603960022005F04AFD80
:10594000F8607B68224A1A607B6804225A607B6890
:105950004FF0C062DA607B6800229A603B681A6888
:105960007B681A617B680022DA637B6805225A61D2
:105970007B680022DA613B685A687B685A623B6840
:105980009A687B689A627B680022DA627B680B22E5
:105990001A637B6800229A617B685B6A0133FA684C
:1059A000B2FBF3F35B000B4AA2FB03239B0C1A1F11
:1059B0007B689A637B6800221A627B6800225A63C4
:1059C000786807F093F8034618461037BD4680BD47
:1059D0000050005283DE1B43B0B586B002AF786042
:1059E0000023FB607B68002B03D06FF00103FB609A
:1059F00079E07A6813465B0013445B013C4A9C18CB
:105A00003C497A6813469B0013440B4401331B78CE
:105A100003F02003002B0CD136497A6813469B0013
:105A200013440B4402331B789B0803F00703D91C73
:105A30000CE030497A6813469B0013440B44023350
:105A40001B789B0803F007030333590029487A6841
:105A500013469B001344034403331B7803F0E00315
:105A6000002B2AD023487A6813469B001344034432
:105A700003331B7803F02003002B1CD11D487A68E8
:105A800013469B001344034403331B7803F0400385
:105A9000002B0ED017487A6813469B00134403442A
:105AA00003331B785BB2002B01DB052206E00622E4
:105AB00004E0042202E0072200E003220D4D786892
:105AC00003469B0003442B4404331B7818460023F1
:105AD000009303462046FDF7BFFB0346002B02D090
